{
  "contractName": "ChanCore",
  "abi": [
    {
      "constant": true,
      "inputs": [],
      "name": "name",
      "outputs": [
        {
          "name": "",
          "type": "string"
        }
      ],
      "payable": false,
      "stateMutability": "view",
      "type": "function"
    },
    {
      "constant": true,
      "inputs": [
        {
          "name": "_tokenId",
          "type": "uint256"
        }
      ],
      "name": "getApproved",
      "outputs": [
        {
          "name": "",
          "type": "address"
        }
      ],
      "payable": false,
      "stateMutability": "view",
      "type": "function"
    },
    {
      "constant": false,
      "inputs": [
        {
          "name": "_to",
          "type": "address"
        },
        {
          "name": "_tokenId",
          "type": "uint256"
        }
      ],
      "name": "approve",
      "outputs": [],
      "payable": false,
      "stateMutability": "nonpayable",
      "type": "function"
    },
    {
      "constant": true,
      "inputs": [],
      "name": "totalSupply",
      "outputs": [
        {
          "name": "",
          "type": "uint256"
        }
      ],
      "payable": false,
      "stateMutability": "view",
      "type": "function"
    },
    {
      "constant": false,
      "inputs": [
        {
          "name": "_from",
          "type": "address"
        },
        {
          "name": "_to",
          "type": "address"
        },
        {
          "name": "_tokenId",
          "type": "uint256"
        }
      ],
      "name": "transferFrom",
      "outputs": [],
      "payable": false,
      "stateMutability": "nonpayable",
      "type": "function"
    },
    {
      "constant": false,
      "inputs": [
        {
          "name": "_chanId",
          "type": "uint256"
        },
        {
          "name": "_startingPrice",
          "type": "uint256"
        },
        {
          "name": "_endingPrice",
          "type": "uint256"
        },
        {
          "name": "_duration",
          "type": "uint256"
        }
      ],
      "name": "createSaleAuction",
      "outputs": [],
      "payable": false,
      "stateMutability": "nonpayable",
      "type": "function"
    },
    {
      "constant": false,
      "inputs": [
        {
          "name": "_from",
          "type": "address"
        },
        {
          "name": "_to",
          "type": "address"
        },
        {
          "name": "_tokenId",
          "type": "uint256"
        }
      ],
      "name": "safeTransferFrom",
      "outputs": [],
      "payable": false,
      "stateMutability": "nonpayable",
      "type": "function"
    },
    {
      "constant": true,
      "inputs": [
        {
          "name": "_tokenId",
          "type": "uint256"
        }
      ],
      "name": "exists",
      "outputs": [
        {
          "name": "",
          "type": "bool"
        }
      ],
      "payable": false,
      "stateMutability": "view",
      "type": "function"
    },
    {
      "constant": true,
      "inputs": [],
      "name": "paused",
      "outputs": [
        {
          "name": "",
          "type": "bool"
        }
      ],
      "payable": false,
      "stateMutability": "view",
      "type": "function"
    },
    {
      "constant": true,
      "inputs": [
        {
          "name": "_tokenId",
          "type": "uint256"
        }
      ],
      "name": "ownerOf",
      "outputs": [
        {
          "name": "",
          "type": "address"
        }
      ],
      "payable": false,
      "stateMutability": "view",
      "type": "function"
    },
    {
      "constant": true,
      "inputs": [],
      "name": "newContractAddress",
      "outputs": [
        {
          "name": "",
          "type": "address"
        }
      ],
      "payable": false,
      "stateMutability": "view",
      "type": "function"
    },
    {
      "constant": false,
      "inputs": [
        {
          "name": "_address",
          "type": "address"
        }
      ],
      "name": "setSaleAuctionAddress",
      "outputs": [],
      "payable": false,
      "stateMutability": "nonpayable",
      "type": "function"
    },
    {
      "constant": true,
      "inputs": [
        {
          "name": "_owner",
          "type": "address"
        }
      ],
      "name": "balanceOf",
      "outputs": [
        {
          "name": "",
          "type": "uint256"
        }
      ],
      "payable": false,
      "stateMutability": "view",
      "type": "function"
    },
    {
      "constant": false,
      "inputs": [],
      "name": "pause",
      "outputs": [],
      "payable": false,
      "stateMutability": "nonpayable",
      "type": "function"
    },
    {
      "constant": true,
      "inputs": [
        {
          "name": "_owner",
          "type": "address"
        }
      ],
      "name": "tokensOfOwner",
      "outputs": [
        {
          "name": "ownerTokens",
          "type": "uint256[]"
        }
      ],
      "payable": false,
      "stateMutability": "view",
      "type": "function"
    },
    {
      "constant": true,
      "inputs": [],
      "name": "owner",
      "outputs": [
        {
          "name": "",
          "type": "address"
        }
      ],
      "payable": false,
      "stateMutability": "view",
      "type": "function"
    },
    {
      "constant": true,
      "inputs": [],
      "name": "getOwnerCut",
      "outputs": [
        {
          "name": "",
          "type": "uint256"
        }
      ],
      "payable": false,
      "stateMutability": "view",
      "type": "function"
    },
    {
      "constant": false,
      "inputs": [],
      "name": "withdrawAuctionBalances",
      "outputs": [],
      "payable": false,
      "stateMutability": "nonpayable",
      "type": "function"
    },
    {
      "constant": true,
      "inputs": [],
      "name": "symbol",
      "outputs": [
        {
          "name": "",
          "type": "string"
        }
      ],
      "payable": false,
      "stateMutability": "view",
      "type": "function"
    },
    {
      "constant": false,
      "inputs": [
        {
          "name": "_to",
          "type": "address"
        },
        {
          "name": "_approved",
          "type": "bool"
        }
      ],
      "name": "setApprovalForAll",
      "outputs": [],
      "payable": false,
      "stateMutability": "nonpayable",
      "type": "function"
    },
    {
      "constant": false,
      "inputs": [
        {
          "name": "_from",
          "type": "address"
        },
        {
          "name": "_to",
          "type": "address"
        },
        {
          "name": "_tokenId",
          "type": "uint256"
        },
        {
          "name": "_data",
          "type": "bytes"
        }
      ],
      "name": "safeTransferFrom",
      "outputs": [],
      "payable": false,
      "stateMutability": "nonpayable",
      "type": "function"
    },
    {
      "constant": true,
      "inputs": [],
      "name": "saleAuction",
      "outputs": [
        {
          "name": "",
          "type": "address"
        }
      ],
      "payable": false,
      "stateMutability": "view",
      "type": "function"
    },
    {
      "constant": true,
      "inputs": [
        {
          "name": "_owner",
          "type": "address"
        },
        {
          "name": "_operator",
          "type": "address"
        }
      ],
      "name": "isApprovedForAll",
      "outputs": [
        {
          "name": "",
          "type": "bool"
        }
      ],
      "payable": false,
      "stateMutability": "view",
      "type": "function"
    },
    {
      "constant": false,
      "inputs": [
        {
          "name": "newOwner",
          "type": "address"
        }
      ],
      "name": "transferOwnership",
      "outputs": [],
      "payable": false,
      "stateMutability": "nonpayable",
      "type": "function"
    },
    {
      "inputs": [],
      "payable": false,
      "stateMutability": "nonpayable",
      "type": "constructor"
    },
    {
      "payable": true,
      "stateMutability": "payable",
      "type": "fallback"
    },
    {
      "anonymous": false,
      "inputs": [
        {
          "indexed": false,
          "name": "owner",
          "type": "address"
        },
        {
          "indexed": false,
          "name": "chanId",
          "type": "uint256"
        }
      ],
      "name": "Birth",
      "type": "event"
    },
    {
      "anonymous": false,
      "inputs": [
        {
          "indexed": false,
          "name": "newContract",
          "type": "address"
        }
      ],
      "name": "ContractUpgrade",
      "type": "event"
    },
    {
      "anonymous": false,
      "inputs": [
        {
          "indexed": true,
          "name": "_from",
          "type": "address"
        },
        {
          "indexed": true,
          "name": "_to",
          "type": "address"
        },
        {
          "indexed": false,
          "name": "_tokenId",
          "type": "uint256"
        }
      ],
      "name": "Transfer",
      "type": "event"
    },
    {
      "anonymous": false,
      "inputs": [
        {
          "indexed": true,
          "name": "_owner",
          "type": "address"
        },
        {
          "indexed": true,
          "name": "_approved",
          "type": "address"
        },
        {
          "indexed": false,
          "name": "_tokenId",
          "type": "uint256"
        }
      ],
      "name": "Approval",
      "type": "event"
    },
    {
      "anonymous": false,
      "inputs": [
        {
          "indexed": true,
          "name": "_owner",
          "type": "address"
        },
        {
          "indexed": true,
          "name": "_operator",
          "type": "address"
        },
        {
          "indexed": false,
          "name": "_approved",
          "type": "bool"
        }
      ],
      "name": "ApprovalForAll",
      "type": "event"
    },
    {
      "anonymous": false,
      "inputs": [],
      "name": "Pause",
      "type": "event"
    },
    {
      "anonymous": false,
      "inputs": [],
      "name": "Unpause",
      "type": "event"
    },
    {
      "anonymous": false,
      "inputs": [
        {
          "indexed": true,
          "name": "previousOwner",
          "type": "address"
        },
        {
          "indexed": true,
          "name": "newOwner",
          "type": "address"
        }
      ],
      "name": "OwnershipTransferred",
      "type": "event"
    },
    {
      "constant": false,
      "inputs": [
        {
          "name": "_v2Address",
          "type": "address"
        }
      ],
      "name": "setNewAddress",
      "outputs": [],
      "payable": false,
      "stateMutability": "nonpayable",
      "type": "function"
    },
    {
      "constant": true,
      "inputs": [
        {
          "name": "_id",
          "type": "uint256"
        }
      ],
      "name": "getChan",
      "outputs": [
        {
          "name": "name",
          "type": "string"
        },
        {
          "name": "birthTime",
          "type": "uint256"
        },
        {
          "name": "level",
          "type": "uint256"
        },
        {
          "name": "gender",
          "type": "bool"
        }
      ],
      "payable": false,
      "stateMutability": "view",
      "type": "function"
    },
    {
      "constant": false,
      "inputs": [
        {
          "name": "_id",
          "type": "uint256"
        }
      ],
      "name": "ChanLevelup",
      "outputs": [
        {
          "name": "newlevel",
          "type": "uint256"
        }
      ],
      "payable": false,
      "stateMutability": "nonpayable",
      "type": "function"
    },
    {
      "constant": false,
      "inputs": [],
      "name": "unpause",
      "outputs": [],
      "payable": false,
      "stateMutability": "nonpayable",
      "type": "function"
    }
  ],
  "bytecode": "0x608060405260008060146101000a81548160ff0219169083151502179055503480156200002b57600080fd5b50336000806101000a81548173ffffffffffffffffffffffffffffffffffffffff021916908373ffffffffffffffffffffffffffffffffffffffff1602179055506001600060146101000a81548160ff021916908315150217905550620000d96040805190810160405280600881526020017f416e696d65476f6400000000000000000000000000000000000000000000000081525030600162000133640100000000026401000000009004565b506200012c6040805190810160405280600881526020017f4d69616f4368616e00000000000000000000000000000000000000000000000081525033600162000133640100000000026401000000009004565b50620005bb565b60006200013f620004e1565b60006080604051908101604052808781526020014281526020016000815260200185151581525091506001600583908060018154018082558091505090600182039060005260206000209060040201600090919290919091506000820151816000019080519060200190620001b69291906200050c565b50602082015181600101556040820151816002015560608201518160030160006101000a81548160ff02191690831515021790555050500390508063ffffffff16811415156200020557600080fd5b7fe3e9cb4c9675332e1e71c04808555c8071daa68327830cac01cc33d4087a64e98582604051808373ffffffffffffffffffffffffffffffffffffffff1673ffffffffffffffffffffffffffffffffffffffff1681526020018281526020019250505060405180910390a16200028b858262000297640100000000026401000000009004565b80925050509392505050565b600073ffffffffffffffffffffffffffffffffffffffff168273ffffffffffffffffffffffffffffffffffffffff1614151515620002d457600080fd5b620002ef828262000359640100000000026401000000009004565b8173ffffffffffffffffffffffffffffffffffffffff16600073ffffffffffffffffffffffffffffffffffffffff167fddf252ad1be2c89b69c2b068fc378daa952ba7f163c4a11628f55a4df523b3ef836040518082815260200191505060405180910390a35050565b600073ffffffffffffffffffffffffffffffffffffffff166001600083815260200190815260200160002060009054906101000a900473ffffffffffffffffffffffffffffffffffffffff1673ffffffffffffffffffffffffffffffffffffffff16141515620003c857600080fd5b816001600083815260200190815260200160002060006101000a81548173ffffffffffffffffffffffffffffffffffffffff021916908373ffffffffffffffffffffffffffffffffffffffff1602179055506200047d6001600360008573ffffffffffffffffffffffffffffffffffffffff1673ffffffffffffffffffffffffffffffffffffffff16815260200190815260200160002054620004c464010000000002620024c6179091906401000000009004565b600360008473ffffffffffffffffffffffffffffffffffffffff1673ffffffffffffffffffffffffffffffffffffffff168152602001908152602001600020819055505050565b60008183019050828110151515620004d857fe5b80905092915050565b6080604051908101604052806060815260200160008152602001600081526020016000151581525090565b828054600181600116156101000203166002900490600052602060002090601f016020900481019282601f106200054f57805160ff191683800117855562000580565b8280016001018555821562000580579182015b828111156200057f57825182559160200191906001019062000562565b5b5090506200058f919062000593565b5090565b620005b891905b80821115620005b45760008160009055506001016200059a565b5090565b90565b61252180620005cb6000396000f30060806040526004361061016a576000357c0100000000000000000000000000000000000000000000000000000000900463ffffffff16806306fdde03146101c8578063081812fc14610258578063095ea7b3146102c557806318160ddd146103125780631876f81f1461033d57806323b872dd1461037e5780633d7d3f5a146103eb5780633f4ba83a1461043657806342842e0e1461044d5780634f558e79146104ba5780635c975abb146104ff5780636352211e1461052e5780636af04a571461059b5780636fbde40d146105f257806370a0823114610635578063715879881461068c5780638456cb59146106cf5780638462151c146106e65780638b804e2c1461077e5780638da5cb5b1461083d5780638ddf41371461089457806391876e57146108bf57806395d89b41146108d6578063a22cb46514610966578063b88d4fde146109b5578063e6cbe35114610a68578063e985e9c514610abf578063f2fde38b14610b3a575b600660009054906101000a900473ffffffffffffffffffffffffffffffffffffffff1673ffffffffffffffffffffffffffffffffffffffff163373ffffffffffffffffffffffffffffffffffffffff161415156101c657600080fd5b005b3480156101d457600080fd5b506101dd610b7d565b6040518080602001828103825283818151815260200191508051906020019080838360005b8381101561021d578082015181840152602081019050610202565b50505050905090810190601f16801561024a5780820380516001836020036101000a031916815260200191505b509250505060405180910390f35b34801561026457600080fd5b5061028360048036038101908080359060200190929190505050610bb6565b604051808273ffffffffffffffffffffffffffffffffffffffff1673ffffffffffffffffffffffffffffffffffffffff16815260200191505060405180910390f35b3480156102d157600080fd5b50610310600480360381019080803573ffffffffffffffffffffffffffffffffffffffff16906020019092919080359060200190929190505050610bf3565b005b34801561031e57600080fd5b50610327610db9565b6040518082815260200191505060405180910390f35b34801561034957600080fd5b5061036860048036038101908080359060200190929190505050610dc9565b6040518082815260200191505060405180910390f35b34801561038a57600080fd5b506103e9600480360381019080803573ffffffffffffffffffffffffffffffffffffffff169060200190929190803573ffffffffffffffffffffffffffffffffffffffff16906020019092919080359060200190929190505050610e0b565b005b3480156103f757600080fd5b5061043460048036038101908080359060200190929190803590602001909291908035906020019092919080359060200190929190505050610f22565b005b34801561044257600080fd5b5061044b6110a9565b005b34801561045957600080fd5b506104b8600480360381019080803573ffffffffffffffffffffffffffffffffffffffff169060200190929190803573ffffffffffffffffffffffffffffffffffffffff16906020019092919080359060200190929190505050611187565b005b3480156104c657600080fd5b506104e5600480360381019080803590602001909291905050506111bf565b604051808215151515815260200191505060405180910390f35b34801561050b57600080fd5b50610514611231565b604051808215151515815260200191505060405180910390f35b34801561053a57600080fd5b5061055960048036038101908080359060200190929190505050611244565b604051808273ffffffffffffffffffffffffffffffffffffffff1673ffffffffffffffffffffffffffffffffffffffff16815260200191505060405180910390f35b3480156105a757600080fd5b506105b06112c2565b604051808273ffffffffffffffffffffffffffffffffffffffff1673ffffffffffffffffffffffffffffffffffffffff16815260200191505060405180910390f35b3480156105fe57600080fd5b50610633600480360381019080803573ffffffffffffffffffffffffffffffffffffffff1690602001909291905050506112e8565b005b34801561064157600080fd5b50610676600480360381019080803573ffffffffffffffffffffffffffffffffffffffff169060200190929190505050611332565b6040518082815260200191505060405180910390f35b34801561069857600080fd5b506106cd600480360381019080803573ffffffffffffffffffffffffffffffffffffffff1690602001909291905050506113b6565b005b3480156106db57600080fd5b506106e46114d3565b005b3480156106f257600080fd5b50610727600480360381019080803573ffffffffffffffffffffffffffffffffffffffff169060200190929190505050611593565b6040518080602001828103825283818151815260200191508051906020019060200280838360005b8381101561076a57808201518184015260208101905061074f565b505050509050019250505060405180910390f35b34801561078a57600080fd5b506107a9600480360381019080803590602001909291905050506116e0565b604051808060200185815260200184815260200183151515158152602001828103825286818151815260200191508051906020019080838360005b838110156107ff5780820151818401526020810190506107e4565b50505050905090810190601f16801561082c5780820380516001836020036101000a031916815260200191505b509550505050505060405180910390f35b34801561084957600080fd5b506108526117d0565b604051808273ffffffffffffffffffffffffffffffffffffffff1673ffffffffffffffffffffffffffffffffffffffff16815260200191505060405180910390f35b3480156108a057600080fd5b506108a96117f5565b6040518082815260200191505060405180910390f35b3480156108cb57600080fd5b506108d46118bc565b005b3480156108e257600080fd5b506108eb6119b7565b6040518080602001828103825283818151815260200191508051906020019080838360005b8381101561092b578082015181840152602081019050610910565b50505050905090810190601f1680156109585780820380516001836020036101000a031916815260200191505b509250505060405180910390f35b34801561097257600080fd5b506109b3600480360381019080803573ffffffffffffffffffffffffffffffffffffffff1690602001909291908035151590602001909291905050506119f0565b005b3480156109c157600080fd5b50610a66600480360381019080803573ffffffffffffffffffffffffffffffffffffffff169060200190929190803573ffffffffffffffffffffffffffffffffffffffff16906020019092919080359060200190929190803590602001908201803590602001908080601f0160208091040260200160405190810160405280939291908181526020018383808284378201915050505050509192919290505050611b2c565b005b348015610a7457600080fd5b50610a7d611b6b565b604051808273ffffffffffffffffffffffffffffffffffffffff1673ffffffffffffffffffffffffffffffffffffffff16815260200191505060405180910390f35b348015610acb57600080fd5b50610b20600480360381019080803573ffffffffffffffffffffffffffffffffffffffff169060200190929190803573ffffffffffffffffffffffffffffffffffffffff169060200190929190505050611b91565b604051808215151515815260200191505060405180910390f35b348015610b4657600080fd5b50610b7b600480360381019080803573ffffffffffffffffffffffffffffffffffffffff169060200190929190505050611c25565b005b6040805190810160405280600b81526020017f43727970746f4368616e7300000000000000000000000000000000000000000081525081565b60006002600083815260200190815260200160002060009054906101000a900473ffffffffffffffffffffffffffffffffffffffff169050919050565b6000610bfe82611244565b90508073ffffffffffffffffffffffffffffffffffffffff168373ffffffffffffffffffffffffffffffffffffffff1614151515610c3b57600080fd5b8073ffffffffffffffffffffffffffffffffffffffff163373ffffffffffffffffffffffffffffffffffffffff161480610c7b5750610c7a8133611b91565b5b1515610c8657600080fd5b600073ffffffffffffffffffffffffffffffffffffffff16610ca783610bb6565b73ffffffffffffffffffffffffffffffffffffffff16141580610cf75750600073ffffffffffffffffffffffffffffffffffffffff168373ffffffffffffffffffffffffffffffffffffffff1614155b15610db457826002600084815260200190815260200160002060006101000a81548173ffffffffffffffffffffffffffffffffffffffff021916908373ffffffffffffffffffffffffffffffffffffffff1602179055508273ffffffffffffffffffffffffffffffffffffffff168173ffffffffffffffffffffffffffffffffffffffff167f8c5be1e5ebec7d5bd14f71427d1e84f3dd0314c0f7b2291e5b200ac8c7c3b925846040518082815260200191505060405180910390a35b505050565b6000600160058054905003905090565b600080600583815481101515610ddb57fe5b90600052602060002090600402019050600181600201600082825401925050819055508060020154915050919050565b80610e163382611d7a565b1515610e2157600080fd5b600073ffffffffffffffffffffffffffffffffffffffff168473ffffffffffffffffffffffffffffffffffffffff1614151515610e5d57600080fd5b600073ffffffffffffffffffffffffffffffffffffffff168373ffffffffffffffffffffffffffffffffffffffff1614151515610e9957600080fd5b610ea38483611e0f565b610ead8483611f78565b610eb783836120a7565b8273ffffffffffffffffffffffffffffffffffffffff168473ffffffffffffffffffffffffffffffffffffffff167fddf252ad1be2c89b69c2b068fc378daa952ba7f163c4a11628f55a4df523b3ef846040518082815260200191505060405180910390a350505050565b600060149054906101000a900460ff16151515610f3e57600080fd5b833373ffffffffffffffffffffffffffffffffffffffff16610f5f82611244565b73ffffffffffffffffffffffffffffffffffffffff16141515610f8157600080fd5b610fad600660009054906101000a900473ffffffffffffffffffffffffffffffffffffffff1686610bf3565b600660009054906101000a900473ffffffffffffffffffffffffffffffffffffffff1673ffffffffffffffffffffffffffffffffffffffff166327ebe40a86868686336040518663ffffffff167c0100000000000000000000000000000000000000000000000000000000028152600401808681526020018581526020018481526020018381526020018273ffffffffffffffffffffffffffffffffffffffff1673ffffffffffffffffffffffffffffffffffffffff16815260200195505050505050600060405180830381600087803b15801561108a57600080fd5b505af115801561109e573d6000803e3d6000fd5b505050505050505050565b6000809054906101000a900473ffffffffffffffffffffffffffffffffffffffff1673ffffffffffffffffffffffffffffffffffffffff163373ffffffffffffffffffffffffffffffffffffffff1614151561110457600080fd5b600060149054906101000a900460ff16151561111f57600080fd5b600073ffffffffffffffffffffffffffffffffffffffff16600660009054906101000a900473ffffffffffffffffffffffffffffffffffffffff1673ffffffffffffffffffffffffffffffffffffffff161415151561117d57600080fd5b611185612201565b565b806111923382611d7a565b151561119d57600080fd5b6111b98484846020604051908101604052806000815250611b2c565b50505050565b6000806001600084815260200190815260200160002060009054906101000a900473ffffffffffffffffffffffffffffffffffffffff169050600073ffffffffffffffffffffffffffffffffffffffff168173ffffffffffffffffffffffffffffffffffffffff161415915050919050565b600060149054906101000a900460ff1681565b6000806001600084815260200190815260200160002060009054906101000a900473ffffffffffffffffffffffffffffffffffffffff169050600073ffffffffffffffffffffffffffffffffffffffff168173ffffffffffffffffffffffffffffffffffffffff16141515156112b957600080fd5b80915050919050565b600760009054906101000a900473ffffffffffffffffffffffffffffffffffffffff1681565b600081905080600660006101000a81548173ffffffffffffffffffffffffffffffffffffffff021916908373ffffffffffffffffffffffffffffffffffffffff1602179055505050565b60008073ffffffffffffffffffffffffffffffffffffffff168273ffffffffffffffffffffffffffffffffffffffff161415151561136f57600080fd5b600360008373ffffffffffffffffffffffffffffffffffffffff1673ffffffffffffffffffffffffffffffffffffffff168152602001908152602001600020549050919050565b6000809054906101000a900473ffffffffffffffffffffffffffffffffffffffff1673ffffffffffffffffffffffffffffffffffffffff163373ffffffffffffffffffffffffffffffffffffffff1614151561141157600080fd5b600060149054906101000a900460ff16151561142c57600080fd5b80600760006101000a81548173ffffffffffffffffffffffffffffffffffffffff021916908373ffffffffffffffffffffffffffffffffffffffff1602179055507f450db8da6efbe9c22f2347f7c2021231df1fc58d3ae9a2fa75d39fa44619930581604051808273ffffffffffffffffffffffffffffffffffffffff1673ffffffffffffffffffffffffffffffffffffffff16815260200191505060405180910390a150565b6000809054906101000a900473ffffffffffffffffffffffffffffffffffffffff1673ffffffffffffffffffffffffffffffffffffffff163373ffffffffffffffffffffffffffffffffffffffff1614151561152e57600080fd5b600060149054906101000a900460ff1615151561154a57600080fd5b6001600060146101000a81548160ff0219169083151502179055507f6985a02210a168e66602d3235cb6db0e70f92b3ba4d376a33c0f3d9434bff62560405160405180910390a1565b60606000606060008060006115a787611332565b945060008514156115ea5760006040519080825280602002602001820160405280156115e25781602001602082028038833980820191505090505b5095506116d6565b846040519080825280602002602001820160405280156116195781602001602082028038833980820191505090505b509350611624610db9565b925060009150600190505b82811115156116d2578673ffffffffffffffffffffffffffffffffffffffff166001600083815260200190815260200160002060009054906101000a900473ffffffffffffffffffffffffffffffffffffffff1673ffffffffffffffffffffffffffffffffffffffff1614156116c5578084838151811015156116ae57fe5b906020019060200201818152505081806001019250505b808060010191505061162f565b8395505b5050505050919050565b60606000806000806005868154811015156116f757fe5b90600052602060002090600402019050806000018054600181600116156101000203166002900480601f01602080910402602001604051908101604052809291908181526020018280546001816001161561010002031660029004801561179f5780601f106117745761010080835404028352916020019161179f565b820191906000526020600020905b81548152906001019060200180831161178257829003601f168201915b5050505050945080600101549350806002015492508060030160009054906101000a900460ff169150509193509193565b6000809054906101000a900473ffffffffffffffffffffffffffffffffffffffff1681565b6000600660009054906101000a900473ffffffffffffffffffffffffffffffffffffffff1673ffffffffffffffffffffffffffffffffffffffff166383b5ff8b6040518163ffffffff167c0100000000000000000000000000000000000000000000000000000000028152600401602060405180830381600087803b15801561187d57600080fd5b505af1158015611891573d6000803e3d6000fd5b505050506040513d60208110156118a757600080fd5b81019080805190602001909291905050505090565b6000809054906101000a900473ffffffffffffffffffffffffffffffffffffffff1673ffffffffffffffffffffffffffffffffffffffff163373ffffffffffffffffffffffffffffffffffffffff1614151561191757600080fd5b600660009054906101000a900473ffffffffffffffffffffffffffffffffffffffff1673ffffffffffffffffffffffffffffffffffffffff16635fd8c7106040518163ffffffff167c0100000000000000000000000000000000000000000000000000000000028152600401600060405180830381600087803b15801561199d57600080fd5b505af11580156119b1573d6000803e3d6000fd5b50505050565b6040805190810160405280600281526020017f434300000000000000000000000000000000000000000000000000000000000081525081565b3373ffffffffffffffffffffffffffffffffffffffff168273ffffffffffffffffffffffffffffffffffffffff1614151515611a2b57600080fd5b80600460003373ffffffffffffffffffffffffffffffffffffffff1673ffffffffffffffffffffffffffffffffffffffff16815260200190815260200160002060008473ffffffffffffffffffffffffffffffffffffffff1673ffffffffffffffffffffffffffffffffffffffff16815260200190815260200160002060006101000a81548160ff0219169083151502179055508173ffffffffffffffffffffffffffffffffffffffff163373ffffffffffffffffffffffffffffffffffffffff167f17307eab39ab6107e8899845ad3d59bd9653f200f220920489ca2b5937696c3183604051808215151515815260200191505060405180910390a35050565b81611b373382611d7a565b1515611b4257600080fd5b611b4d858585610e0b565b611b59858585856122bf565b1515611b6457600080fd5b5050505050565b600660009054906101000a900473ffffffffffffffffffffffffffffffffffffffff1681565b6000600460008473ffffffffffffffffffffffffffffffffffffffff1673ffffffffffffffffffffffffffffffffffffffff16815260200190815260200160002060008373ffffffffffffffffffffffffffffffffffffffff1673ffffffffffffffffffffffffffffffffffffffff16815260200190815260200160002060009054906101000a900460ff16905092915050565b6000809054906101000a900473ffffffffffffffffffffffffffffffffffffffff1673ffffffffffffffffffffffffffffffffffffffff163373ffffffffffffffffffffffffffffffffffffffff16141515611c8057600080fd5b600073ffffffffffffffffffffffffffffffffffffffff168173ffffffffffffffffffffffffffffffffffffffff1614151515611cbc57600080fd5b8073ffffffffffffffffffffffffffffffffffffffff166000809054906101000a900473ffffffffffffffffffffffffffffffffffffffff1673ffffffffffffffffffffffffffffffffffffffff167f8be0079c531659141344cd1fd0a4f28419497f9722a3daafe3b4186f6b6457e060405160405180910390a3806000806101000a81548173ffffffffffffffffffffffffffffffffffffffff021916908373ffffffffffffffffffffffffffffffffffffffff16021790555050565b600080611d8683611244565b90508073ffffffffffffffffffffffffffffffffffffffff168473ffffffffffffffffffffffffffffffffffffffff161480611df557508373ffffffffffffffffffffffffffffffffffffffff16611ddd84610bb6565b73ffffffffffffffffffffffffffffffffffffffff16145b80611e065750611e058185611b91565b5b91505092915050565b8173ffffffffffffffffffffffffffffffffffffffff16611e2f82611244565b73ffffffffffffffffffffffffffffffffffffffff16141515611e5157600080fd5b600073ffffffffffffffffffffffffffffffffffffffff166002600083815260200190815260200160002060009054906101000a900473ffffffffffffffffffffffffffffffffffffffff1673ffffffffffffffffffffffffffffffffffffffff16141515611f745760006002600083815260200190815260200160002060006101000a81548173ffffffffffffffffffffffffffffffffffffffff021916908373ffffffffffffffffffffffffffffffffffffffff160217905550600073ffffffffffffffffffffffffffffffffffffffff168273ffffffffffffffffffffffffffffffffffffffff167f8c5be1e5ebec7d5bd14f71427d1e84f3dd0314c0f7b2291e5b200ac8c7c3b925836040518082815260200191505060405180910390a35b5050565b8173ffffffffffffffffffffffffffffffffffffffff16611f9882611244565b73ffffffffffffffffffffffffffffffffffffffff16141515611fba57600080fd5b61200d6001600360008573ffffffffffffffffffffffffffffffffffffffff1673ffffffffffffffffffffffffffffffffffffffff168152602001908152602001600020546124ad90919063ffffffff16565b600360008473ffffffffffffffffffffffffffffffffffffffff1673ffffffffffffffffffffffffffffffffffffffff1681526020019081526020016000208190555060006001600083815260200190815260200160002060006101000a81548173ffffffffffffffffffffffffffffffffffffffff021916908373ffffffffffffffffffffffffffffffffffffffff1602179055505050565b600073ffffffffffffffffffffffffffffffffffffffff166001600083815260200190815260200160002060009054906101000a900473ffffffffffffffffffffffffffffffffffffffff1673ffffffffffffffffffffffffffffffffffffffff1614151561211557600080fd5b816001600083815260200190815260200160002060006101000a81548173ffffffffffffffffffffffffffffffffffffffff021916908373ffffffffffffffffffffffffffffffffffffffff1602179055506121ba6001600360008573ffffffffffffffffffffffffffffffffffffffff1673ffffffffffffffffffffffffffffffffffffffff168152602001908152602001600020546124c690919063ffffffff16565b600360008473ffffffffffffffffffffffffffffffffffffffff1673ffffffffffffffffffffffffffffffffffffffff168152602001908152602001600020819055505050565b6000809054906101000a900473ffffffffffffffffffffffffffffffffffffffff1673ffffffffffffffffffffffffffffffffffffffff163373ffffffffffffffffffffffffffffffffffffffff1614151561225c57600080fd5b600060149054906101000a900460ff16151561227757600080fd5b60008060146101000a81548160ff0219169083151502179055507f7805862f689e2f13df9f062ff482ad3ad112aca9e0847911ed832e158c525b3360405160405180910390a1565b6000806122e18573ffffffffffffffffffffffffffffffffffffffff166124e2565b15156122f057600191506124a4565b8473ffffffffffffffffffffffffffffffffffffffff1663f0b9e5ba8786866040518463ffffffff167c0100000000000000000000000000000000000000000000000000000000028152600401808473ffffffffffffffffffffffffffffffffffffffff1673ffffffffffffffffffffffffffffffffffffffff16815260200183815260200180602001828103825283818151815260200191508051906020019080838360005b838110156123b2578082015181840152602081019050612397565b50505050905090810190601f1680156123df5780820380516001836020036101000a031916815260200191505b50945050505050602060405180830381600087803b15801561240057600080fd5b505af1158015612414573d6000803e3d6000fd5b505050506040513d602081101561242a57600080fd5b8101908080519060200190929190505050905063f0b9e5ba7c0100000000000000000000000000000000000000000000000000000000027bffffffffffffffffffffffffffffffffffffffffffffffffffffffff1916817bffffffffffffffffffffffffffffffffffffffffffffffffffffffff19161491505b50949350505050565b60008282111515156124bb57fe5b818303905092915050565b600081830190508281101515156124d957fe5b80905092915050565b600080823b9050600081119150509190505600a165627a7a723058207df479b8300f15599aaa41c36e423ab99ed529752e4d674232f8ad5817b097270029",
  "source": "pragma solidity ^0.4.21;\n\nimport \"./ChanAuction.sol\";\n//import 'openzeppelin-solidity/contracts/ownership/Ownable.sol';\n\ncontract ChanCore is ChanAuction {\n\n    // Set in case the core contract is broken and an upgrade is required\n    address public newContractAddress;\n\n    /// @notice Creates the main CryptoKitties smart contract instance.\n    function ChanCore() public Ownable() {\n        // Starts paused.\n        paused = true;\n\n        // start with the mythical chan 0 - so we don't have generation-0 parent issues\n        _createChan(\"AnimeGod\", this, true);\n\n        _createChan(\"MiaoChan\", msg.sender, true);\n    }\n\n    // Used to mark the smart contract as upgraded, in case there is a serious\n    // breaking bug. This method does nothing but keep track of the new contract and\n    // emit a message indicating that the new address is set. It's up to clients of this\n    // contract to update to the new contract address in that case. (This contract will\n    // be paused indefinitely if such an upgrade takes place.)\n    // @param _v2Address new address\n    function setNewAddress(address _v2Address) public onlyOwner whenPaused {\n        // See README.md for updgrade plan\n        newContractAddress = _v2Address;\n        emit ContractUpgrade(_v2Address);\n    }\n\n    // Reject all Ether from being sent here, unless it's from one of the\n    // two auction contracts. (Hopefully, we can prevent user accidents.)\n    function() external payable {\n        require(msg.sender == address(saleAuction));\n    }\n\n    // Returns all the relevant information about a specific Chan.\n    // @param _id The ID of the chan of interest.\n    function getChan(uint256 _id)\n        public\n        view\n        returns (\n        string name,\n        uint256 birthTime,\n        uint256 level,\n        bool    gender\n    ) {\n        Chan storage chan = chans[_id];\n\n        name = chan.name;\n        birthTime = uint256(chan.birthTime);\n        level = chan.level;\n        gender = chan.gender;\n    }\n\n    function ChanLevelup(uint256 _id) public returns (uint256 newlevel) {\n        Chan storage chan = chans[_id];\n        chan.level += 1; //todo: get random number\n        newlevel = chan.level;\n    }\n\n    // @override\n    function unpause() public onlyOwner whenPaused {\n        require(saleAuction != address(0));\n        //require(newContractAddress == address(0));\n\n        // Actually unpause the contract.\n        super.unpause();\n    }\n}",
  "sourcePath": "/Users/kevinlee/Data/Personal/Blockchain/react/contracts/ChanCore.sol",
  "compiler": {
    "name": "solc",
    "version": "0.4.23+commit.124ca40d.Emscripten.clang"
  },
  "schemaVersion": "2.0.0",
  "updatedAt": "2018-05-09T08:54:05.716Z"
}